:020000040000FA
:020000000528D1
:040002000034003492
:02000800382896
:06000A00831603138801B8
:100010008312031388018316031306108610061635
:100020008616061786178316031789120912891177
:100030000911891009108312031306108610831604
:1000400003131616961616179617831603138113A5
:100050008316031315169516151795171510951079
:1000600015119511831203130B108B158B1737285D
:10007000F000030EF100831203130B1888284028A8
:10008000710E8300F00E700E0900A001A00A48282E
:1000900083120313061086145228831203130614C6
:1000A0008610522883120313061E6628A00A861E95
:1000B0006628A00A061F6628A00A861F6628A00ACE
:1000C0006128061C4D28861C00007128061E662823
:1000D000861E6828061F6A28861F6C280610861050
:1000E0000800A001061086100800820700340134C1
:1000F0000234043408341034203440348034831201
:100100000313880120087520831203138800080058
:0C01100045207F20831203130B104028B1
:02400E00F12F90
:00000001FF
